:100000007520C07521A47522997523827524807589
:10001000259874FFF5B020B302801420B40280212B
:1000200020B502802E20B602803B20B7D380483115
:100030000C75A000C29011A075A0FFD29011D680BF
:10004000EE311F75A000C29011B275A0FFD29011C1
:10005000C480EE313275A000C29011C475A0FFD2E9
:100060009011B280EE314575A000C29011D675A0F6
:10007000FFD29011A080EEC292C29385258075A018
:1000800000C29011E875A0FFD290118E80E97588AA
:1000900010758901758CFF758A10308DFDC28D2217
:1000A000758810758901758CED758A40308DFDC29B
:1000B0008D22758810758901758CDA758A80308D6E
:1000C000FDC28D22758810758901758CC7758AC02F
:1000D000308DFDC28D22758810758901758CB575BE
:1000E0008A00308DFDC28D22758810758901758C4E
:1000F000A3758A30308DFDC28D22758810758901F7
:10010000758CFF758AE8308DFDC28D22C293D29224
:10011000852080118ED293C29285218011FA22C24D
:1001200093D29285208011FAD293C29285228011B7
:10013000FA22C293D29285208011FAD293C292857C
:10014000238011FA22C293D29285208011FAD29391
:08015000C29285248011FA22FD
:00000001FF
