:100000007520C07521A47522997523827524807589
:10001000259874FFF5B020B302801420B40280212B
:1000200020B502802E20B602803B20B7D380483115
:100030005975A000C29011A075A0FFD290310F8019
:10004000EE316C75A000C29011C575A0FFD2901161
:10005000EA80EE317F75A000C29011EA75A0FFD250
:100060009011C580EE319275A000C290310F75A03D
:10007000FFD29011A080EEC292C29385258075A018
:1000800000C290118E75A0FFD290118E80E9758804
:1000900010758901758CB1758AE0308DFDC28D2295
:1000A0007406758810758901758C00758A00308D0D
:1000B000FD14C28DB400F14000758CE5758A803066
:1000C0008DFDC28D22740C758810758901758C00A8
:1000D000758A00308DFD14C28DB400F14000758C1E
:1000E000CB758A00308DFDC28D2274127588107513
:1000F0008901758C00758A00308DFDC28D14B400A5
:10010000F14000758CB0758A80308DFDC28D2274EF
:1001100018758810758901758C00758A00308DFD01
:10012000C28D14B400F14000758C96758A00308D34
:10013000FDC28D22741E758810758901758C00753D
:100140008A00308DFDC28D14B400F14000758CC959
:10015000758AA0308DFDC28D22C293D292852080F7
:10016000118ED293C292852180118E22C293D29297
:10017000852080118ED293C292852280118E22C258
:1001800093D292852080118ED293C29285238011C2
:100190008E22C293D292852080118ED293C29285F4
:0501A0002480118E22F5
:00000001FF
